{
  "_format": "hh-sol-artifact-1",
  "contractName": "Storage",
  "sourceName": "contracts/Contract.sol",
  "abi": [
    {
      "inputs": [],
      "name": "getData",
      "outputs": [
        {
          "internalType": "string",
          "name": "",
          "type": "string"
        }
      ],
      "stateMutability": "view",
      "type": "function"
    },
    {
      "inputs": [
        {
          "internalType": "string",
          "name": "_data",
          "type": "string"
        }
      ],
      "name": "setData",
      "outputs": [],
      "stateMutability": "nonpayable",
      "type": "function"
    }
  ],
  "bytecode": "0x608060405234801561001057600080fd5b5061033d806100206000396000f3fe608060405234801561001057600080fd5b50600436106100365760003560e01c80633bc5de301461003b57806347064d6a14610059575b600080fd5b61004361006e565b60405161005091906101b0565b60405180910390f35b61006c61006736600461021b565b610100565b005b60606000805461007d906102cc565b80601f01602080910402602001604051908101604052809291908181526020018280546100a9906102cc565b80156100f65780601f106100cb576101008083540402835291602001916100f6565b820191906000526020600020905b8154815290600101906020018083116100d957829003601f168201915b5050505050905090565b8051610113906000906020840190610117565b5050565b828054610123906102cc565b90600052602060002090601f016020900481019282610145576000855561018b565b82601f1061015e57805160ff191683800117855561018b565b8280016001018555821561018b579182015b8281111561018b578251825591602001919060010190610170565b5061019792915061019b565b5090565b5b80821115610197576000815560010161019c565b600060208083528351808285015260005b818110156101dd578581018301518582016040015282016101c1565b818111156101ef576000604083870101525b50601f01601f1916929092016040019392505050565b634e487b7160e01b600052604160045260246000fd5b60006020828403121561022d57600080fd5b813567ffffffffffffffff8082111561024557600080fd5b818401915084601f83011261025957600080fd5b81358181111561026b5761026b610205565b604051601f8201601f19908116603f0116810190838211818310171561029357610293610205565b816040528281528760208487010111156102ac57600080fd5b826020860160208301376000928101602001929092525095945050505050565b600181811c908216806102e057607f821691505b6020821081141561030157634e487b7160e01b600052602260045260246000fd5b5091905056fea264697066735822122056aa52abbfdba403869d45a9ff15dc89967ee46ed3240a65227dee66cf4f95a964736f6c63430008090033",
  "linkReferences": {},
  "deployedLinkReferences": {}
}